:100000000C947A1C0C94AB1C0C94AB1C0C94AB1C85
:100010000C94AB1C0C94AB1C0C94AB1C0C94AB1C44
:100020000C94AB1C0C94AB1C0C94AB1C0C94AB1C34
:100030000C94AB1C0C949E840C94AB1C0C94AB1CC9
:100040000C94AB1C0D94B70C0C94AB1C0C94AB1C17
:100050000C94AB1C0C94AB1C0C9402900C940A56A0
:100060000C94AB1C0C94C6490C94AB1C0C94AB1CAC
:100070000C94AB1C0C94AB1C0C94AB1C0C94AB1CE4
:100080000D94D70E0C94AB1C0C94AB1C0C94AB1CB5
:100090000C94AB1C0C94AB1C0C94AB1C0C94AB1CC4
:1000A0000C94AB1C0C94AB1C0D94AA0E0C94AB1CC2
:1000B0000C94AB1C0C94AB1C0C94AB1C0D947D0EDF
:1000C0000C94AB1C0C94AB1C0C94AB1C0C94AB1C94
:1000D0000C94AB1C0C94AB1C0C94AB1C0C94AB1C84
:1000E0000C94AB1C4F555255415545554B558955B0
:1000F00056555A556055645568556E557255765526
:1001000089557C5580558455F0CFD6CFD9CFDCCFDB
:10011000DFCFEBCFE2CFFCCFE5CFE8CF084AD73B2C
:100120003BCE016E84BCBFFDC12F3D6C74319ABDC6
:1001300056833DDA3D00C77F11BED9E4BB4C3E91EA
:100140006BAAAABE000000803F05A84CCDB2D44ED9
:10015000B93836A9020C50B9918688083CA6AAAADB
:100160002ABE000000803F000D9499030D94581F93
:100170000D94841E0D948E034E414E494E495459A0
:10018000494E46CDCCCC3D0AD7233C17B7D1387762
:10019000CC2B329595E6241FB14F0A000020410078
:1001A00000C84200401C4620BCBE4CCA1B0E5AAEC2
:1001B000C59D7400407A10F35A00A0724E180900D1
:1001C00010A5D4E80000E87648170000E40B5402BC
:1001D0000000CA9A3B000000E1F5050000809698F7
:1001E00000000040420F000000A086010000001047
:1001F0002700000000E80300000000640000000089
:10020000000A00000000000100000000002C76D869
:1002100088DC674F0823DFC1DFAE59E1B1B796E54F
:10022000E3E453C63AE651997696E8E6C28426EBB3
:10023000898C9B62ED407C6FFCEFBC9C9F40F2BAC6
:10024000A56FA5F490055A2AF75C936B6CF9676D5E
:10025000C11BFCE0E40D47FEF520E6B500D0ED90B3
:100260002E0300943577050080841E080000204E80
:100270000A000000C80C333333330F986E12831119
:1002800041EF8D2114893BE65516CFFEE6DB18D1F0
:10029000844B381BF77C1D901DA4BBE424203284C2
:1002A000725E228100C9F124ECA1E53D2747322F7F
:1002B00047332062616420706172616D657465729C
:1002C000730A00536C6565702E2E2E00486F6D65A5
:1002D0002058592066697273740A00486F6D652052
:1002E0005859206669727374004D31323500286E9A
:1002F0006F2066696C6529005344207072696E74C2
:10030000696E67206279746520004E6F74205344D3
:10031000207072696E74696E670A00437572726547
:100320006E742066696C653A200046696C652064CD
:10033000656C657465643A0044656C6574696F6EDC
:10034000206661696C65642C2046696C653A200002
:100350002569730025696D2025697300256968206A
:1003600025696D2025697300256964202569682049
:1003700025696D2025697300256979202569642028
:100380002569682025696D20256973005072696EA2
:10039000742074696D653A20004B494C4C45442EDD
:1003A00020004D3131332053006F6B0020573A004D
:1003B0004520436F6F6C696E672E2E2E00452048D6
:1003C000656174696E672E2E2E0020573A004265D3
:1003D0006420636F6F6C696E672E2E2E0042656419
:1003E0002068656174696E672E2E2E005448455250
:1003F0004D414C5F50524F54454354494F4E00417C
:1004000055544F5245504F52545F53445F535441DB
:1004100054555300454D455247454E43595F504151
:100420005253455200434153455F4C494748545F3E
:100430004252494748544E45535300544F47474C46
:10044000455F4C494748545300534F465457415217
:10045000455F504F574552004255494C445F504507
:100460005243454E54004C4556454C494E475F4417
:10047000415441005A5F50524F4245004155544F3C
:100480004C4556454C005052494E545F4A4F42002D
:1004900050524F4752455353004155544F524550C7
:1004A0004F52545F54454D5000564F4C554D455496
:1004B00052494300454550524F4D00534552494122
:1004C0004C5F584F4E5F584F4646004649524D5775
:1004D0004152455F4E414D453A4D61726C696E2007
:1004E000544833442055312E52322E396220534F16
:1004F000555243455F434F44455F55524C3A205057
:10050000524F544F434F4C5F56455253494F4E3A0A
:10051000312E30204D414348494E455F5459504596
:100520003A5448334420424C546F75636820455810
:100530005452554445525F434F554E543A3120551D
:100540005549443A0A003F4A206F7574206F66206F
:1005500072616E67652028302E303120746F203034
:100560002E33290A00206F7574206F662072616E29
:1005700067650A00536572766F20003A20002053A9
:100580006572766F200020643A0020693A0020707E
:100590003A00496E76616C6964206578747275649E
:1005A00065720A0043290A0061626C656420286D47
:1005B000696E2074656D702000436F6C64206578EF
:1005C0007472756465732061726520004B6420004D
:1005D00023646566696E652044454641554C545F09
:1005E000004B69200023646566696E6520444546BA
:1005F00041554C545F004B70200023646566696E62
:10060000652044454641554C545F005049442041C3
:1006100075746F74756E652066696E69736865645C
:10062000212050757420746865206C617374204BB0
:10063000702C204B6920616E64204B6420636F6EC8
:100640007374616E74732066726F6D2062656C6F77
:100650007720696E746F20436F6E6669677572618B
:1006600074696F6E2E680A00504944204175746F9A
:1006700074756E65206661696C6564212074696DAE
:10068000656F75740A00453120544845524D414C00
:100690002052554E41574159004245442054484547
:1006A000524D414C2052554E4157415900546865B6
:1006B000726D616C2052756E6177617900453120F1
:1006C00048656174696E67206661696C65640042A3
:1006D00065642068656174696E67206661696C6530
:1006E000640048656174696E67206661696C656461
:1006F00000504944204175746F74756E65206661C1
:10070000696C6564212054656D70657261747572E1
:100710006520746F6F20686967680A00204B643A2F
:100720002000204B693A2000204B703A20000A201C
:10073000436C617373696320504944200A0020545C
:10074000753A2000204B753A2000206D61783A20E0
:1007500000206D696E3A200020643A200020626912
:1007600061733A2000504944204175746F74756E6E
:1007700065206661696C6564212054656D706572E1
:10078000617475726520746F6F20686967680A000C
:10079000504944204175746F74756E65207374619F
:1007A00072740A00504944204175746F74756E6507
:1007B000206661696C6564212042616420657874FB
:1007C0007275646572206E756D6265720A002064D0
:1007D0003A0020693A0020703A004E6F206361733E
:1007E00065206C696768740A004F66660A00466196
:1007F0006465204865696768742000426564204C20
:100800006576656C696E6720004661696C65642079
:10081000746F20656E61626C6520426564204C6572
:1008200076656C696E670A004D65736820706F6944
:100830006E742063616E6E6F7420626520726573E2
:100840006F6C7665640A004D34323120696E636FD7
:10085000727265637420706172616D657465722077
:1008600075736167650A00454550524F4D204F4BE7
:100870000A00496E736572742066696C616D656EFD
:100880007420616E64207072657373206275747475
:100890006F6E0A00507265737320627574746F6EA8
:1008A00020746F2068656174206E6F7A7A6C650AB7
:1008B00000496E736572742066696C616D656E7453
:1008C00020616E6420707265737320627574746F3A
:1008D0006E20286F72204D313038290A003A2000EE
:1008E00050726F6265205A204F6666736574003FD0
:1008F0005A206F7574206F662072616E67652028BC
:100900002D3520746F2031290A00416374697665A2
:100910002045787472756465723A2000496E76617C
:100920006C69642065787472756465720A004E6F34
:1009300020436865636B73756D2077697468206CFC
:10094000696E65206E756D6265722C204C617374E2
:10095000204C696E653A20004B494C4C45442E2092
:100960000053544F505045442E20005072696E740D
:1009700065722073746F707065642064756520748F
:100980006F206572726F72732E20466978207468CA
:1009900065206572726F7220616E642075736520C8
:1009A0004D39393920746F20726573746172742EF9
:1009B000202854656D706572617475726520697365
:1009C0002072657365742E205365742069742061EC
:1009D000667465722072657374617274696E6729DA
:1009E0000A004E6F20436865636B73756D207769ED
:1009F0007468206C696E65206E756D6265722C205E
:100A00004C617374204C696E653A200063686563BD
:100A10006B73756D206D69736D617463682C204C08
:100A2000617374204C696E653A20004C696E6520D4
:100A30004E756D626572206973206E6F74204C6113
:100A40007374204C696E65204E756D6265722B3132
:100A50002C204C617374204C696E653A20004D3136
:100A60003130004D3331005344207265616420659C
:100A700072726F720A00446F6E65207072696E74D4
:100A8000696E672066696C650A0020496E76616C44
:100A900069642065787472756465722000000000D6
:100AA0000000000000000000000000FA430000FA0F
:100AB000430000FA4353544F505045442E200050F9
:100AC00072696E7465722073746F707065642064EF
:100AD000756520746F206572726F72732E2046697F
:100AE0007820746865206572726F7220616E642070
:100AF000757365204D39393920746F2072657374B0
:100B00006172742E202854656D70657261747572FF
:100B1000652069732072657365742E205365742097
:100B20006974206166746572207265737461727491
:100B3000696E67290A0053544F502063616C6C65DD
:100B4000642062656361757365206F6620424C5452
:100B50006F756368206572726F72202D20726573E5
:100B6000746172742077697468204D3939390A00CC
:100B700042696C696E656172204C6576656C696E60
:100B80006720477269643A0A007C3C3E5E2B3D3F19
:100B90002F5B5D3B2C2A225C004572726F722077BE
:100BA000726974696E6720746F20454550524F4DCD
:100BB000210A0000060900FE0701920321207FFFA1
:100BC00007FF07FF000000060000010707060200FC
:100BD00080808080800080030202060105A0A005BD
:100BE00007070600005050F850F850500507070658
:100BF00000002078A07028F020050707060000C03C
:100C0000C810204098180507070600006090A04013
:100C1000A89068020303060104C04080030707068A
:100C200001002040808080402003070706010080EB
:100C300040202020408005050506000120A870A85E
:100C4000200505050600012020F8202002030306E8
:100C500002FFC04080050101060003F802020206FF
:100C60000200C0C0050505060001081020408005EF
:100C700007070600007088888888887003070706C1
:100C8000010040C040404040E005070706000070FA
:100C90008808708080F8050707060000F81020100B
:100CA0000808F005070706000010305090F81010F3
:100CB000050707060000F880F00808887005070798
:100CC000060000708080F088887005070706000025
:100CD000F8081020202020050707060000708888EB
:100CE00070888870050707060000708888780808F3
:100CF00070020505060200C0C000C0C0020606065C
:100D000002FFC0C000C0408004070706000010209A
:100D10004080402010050303060002F800F8040795
:100D200007060100804020102040800507070600CC
:100D30000070880810200020050707060000708852
:100D40000868A8A870050707060000708888F8885A
:100D50008888050707060000F08888F08888F00575
:100D600007070600007088808080887005070706E6
:100D70000000F08888888888F0050707060000F8DA
:100D80008080F08080F8050707060000F88080F07A
:100D9000808080050707060000708880B88888700A
:100DA000050707060000888888F8888888010707F3
:100DB0000602008080808080808005070706000092
:100DC000381010101090600507070600008890A0EA
:100DD000C0A0908805070706000080808080808082
:100DE000F805070706000088D8A8888888880507BE
:100DF000070600008888C8A89888880507070600A5
:100E00000070888888888870050707060000F088C9
:100E100088F080808005070706000070888888A811
:100E20009068050707060000F08888F0A090880504
:100E30000707060000788080700808F0050707069D
:100E40000000F82020202020200507070600008849
:100E50008888888888700507070600008888888841
:100E60008850200507070600008888888888A850D1
:100E70000507070600008888502050888805070766
:100E800006000088888850202020050707060000FB
:100E9000F80810204080F8030707060100E0808072
:100EA000808080E0050505060001804020100803D1
:100EB0000707060100E02020202020E005030306AC
:100EC0000004205088050101060000F80202020615
:100ED0000205804005050506000070087888780541
:100EE00007070600008080B0C88888F00505050661
:100EF00000007080808870050707060000080868F9
:100F0000988888780505050600007088F8807005C7
:100F100007070600003048E040404040050606064E
:100F200000FF708888780870050707060000808039
:100F3000B0C888888801070706020080008080808A
:100F400080800308080601FF200020202020A04008
:100F5000040707060000808090A0C0A09003070748
:100F6000060100C04040404040E005050506000085
:100F7000D0A8A8A8A8050505060000B0C8888888DC
:100F800005050506000070888888700506060600BD
:100F9000FFF08888F080800506060600FF788888C4
:100FA000780808050505060000B0C88080800505A2
:100FB0000506000070807008F00407070600004076
:100FC00040E04040403005050506000088888898CC
:100FD0006805050506000088888850200505050677
:100FE00000008888A8A85005050506000088502044
:100FF00050880506060600FF888888780870050571
:1010000005060000F8102040F8030707060100203D
:101010004040804040200107070602008080808019
:101020008080800307070601008040402040408008
:1010300005020206000268900000000600000000A1
:101040002100240027002A002D0030003300010178
:101050000000040107010A014D6F76652058004D1C
:101060006F76652059004D6F7665205A004578747B
:101070007275646572004D6F766520302E316D6D2E
:10108000004D6F766520316D6D004D6F76652031B6
:10109000306D6D004D6F766520617869730045781D
:1010A000747275646572004D6F7665205A004D6FDD
:1010B00076652059004D6F7665205800457874722A
:1010C00075646572004D6F7665205A004D6F7665C8
:1010D0002059004D6F76652058005072657061721E
:1010E0006500526573657420454550524F4D00436D
:1010F0006F6E74726F6C0052657365742045455055
:10110000524F4D0053746F72652073657474696E2D
:10111000677300424C546F7563680046696C616D7B
:10112000656E74004D6F74696F6E0054656D706507
:10113000726174757265004D61696E004D333033B4
:101140002055312045256920532569005072656876
:101150006561742041425320636F6E660050726572
:101160006865617420504C4120636F6E6600504981
:1011700044204175746F74756E6500504944204178
:1011800075746F74756E65005049442D4400504964
:10119000442D44005049442D49005049442D4900F4
:1011A0005049442D50005049442D500046616E2056
:1011B00073706565640046616E20737065656400D8
:1011C00042656400426564004E6F7A7A6C65004E39
:1011D0006F7A7A6C6500436F6E74726F6C0024F4E2
:1011E000D43050C38E20C2A24017828B7011127A65
:1011F000910D816CD90AA861E108C7586607615151
:1012000043061E4B5D05C145A7041A411104093D63
:101210009803713931034036DB0265339102D430D3
:101220005402802E1D02632CEE01752AC501B028E0
:10123000A001102781018F2564012B244B01E0229E
:101240003401AC211F018D200D01801FFC00841E84
:10125000ED00971DDF00B81CD200E61BC600201B66
:10126000BC00641AB200B219A8000A19A0006A18DA
:101270009900D117910040178B00B51684003116E4
:101280007E00B31579003A157300C7146F00581427
:101290006A00EE1366008813630025135E00C71210
:1012A0005B006C12570015125400C11151007011EF
:1012B0004F0021114B00D61049008D1047004610F9
:1012C000440002104200C00F4000800F3E00420F59
:1012D0003C00060F3B00CB0E3800930E37005C0E2F
:1012E0003500270E3400F30D3200C10D3100900D92
:1012F0003000600D2E00320D2D00050D2C00D90C94
:101300002B00AE0C2900850C29005C0C2700350C45
:1013100027000E0C2600E80B2400C40B2400A00BB1
:1013200023007D0B23005A0B2100390B2100180BE1
:101330002000F80A1F00D90A1E00BB0A1E009D0AE1
:101340001D00800A1D00630A1C00470A1B002C0AAE
:101350001B00110A1A00F7091A00DD091900C40957
:101360001900AB091900920917007B0918006309DD
:1013700017004C09160036091600200916000A0944
:101380001500F5081500E0081400CC081400B80892
:101390001400A4081400900813007D0812006B08C4
:1013A00013005808120046081200340811002308E0
:1013B00011001208110001081100F0071000E007E9
:1013C0001000D0071000C0071000B0070F00A107E1
:1013D000100091070E0083070F0074070F006507C8
:1013E0000E0057070E0049070E003B070D002E07A1
:1013F0000E0020070D0013070D0006070D00F9066B
:101400000C00ED060D00E0060C00D4060C00C8062A
:101410000C00BC060C00B0060C00A4060B009906DC
:101420000C008D060B0082060B0077060B006C0685
:101430000B0061060A0057060B004C060A00420624
:101440000A0038060A002E060A0024060A001A06B8
:101450000A001006090007060A00FD050900F40548
:101460000900EB050900E2050900D9050900D005CE
:101470000900C7050900BE050900B5050800AD054E
:101480000800A50509009C050800940508008C05C6
:101490000800840508007C050800740508006C0538
:1014A0000700650508005D050700560508004E05A4
:1014B000070047050700400508003805070031050B
:1014C00007002A050700230507001C05060016056E
:1014D00007000F0507000805060002050700FB04CA
:1014E0000600F5040700EE040600E8040600E20426
:1014F0000700DB040600D5040600CF040600C9047B
:101500000600C3040600BD040600B7040600B104CB
:101510000500AC040600A6040600A00405009B0418
:10152000060095040500900406008A040500850461
:101530000500800406007A040500750405007004A7
:1015400005006B04050066040500610405005C04E9
:10155000050057040500520405004D040500480429
:101560000500430405003E0404003A040500350468
:101570000500300404002C040500270404002304A3
:1015800005001E0404001A040400160405001104DA
:1015900004000D0404000904050004040400000410
:1015A0000400FC030400F8030400F4030400F00347
:1015B0000400EC030400E8030400E4030400E00377
:1015C0000400DC030400D8030400D4030400D003A7
:1015D0000400CC030400C8030300C503030024F483
:1015E00004D9201BC40C5C0E9804C4095F02650773
:1015F0007101F405F900FB04B30048048700C1033E
:1016000069005803550003034500BE023A008402F6
:10161000310053022A002902250004022000E401BF
:101620001C00C8011900AF011700980114008401C3
:101630001300710110006101100051010E004301FF
:101640000D0036010B002B010B0020010B001501D2
:1016500009000C01090003010800FB000800F30069
:101660000800EB000700E4000600DE000600D800DA
:101670000600D2000600CC000500C7000500C2002D
:101680000500BD000400B9000400B5000400B1006D
:101690000400AD000400A9000400A5000300A2009E
:1016A00003009F0004009B000300980003009500C6
:1016B000020093000300900003008D0002008B00E5
:1016C00003008800020086000200840003008100FD
:1016D00002007F0002007D0002007B000200790012
:1016E0000200770001007600020074000200720020
:1016F0000100710002006F0002006D0001006C002B
:1017000002006A0001006900020067000100660033
:101710000100650001006400020062000100610038
:101720000100600001005F0002005D0001005C003C
:1017300001005B0001005A0001005900010058003F
:10174000010057000100560001005500010054003F
:10175000010053000000530001005200010051003D
:101760000100500001004F0001004E0000004E003B
:1017700001004D0001004C0001004B0000004B0037
:1017800001004A0001004900010048000000480033
:10179000010047000100460000004600010045002E
:1017A0000000450001004400010043000000430028
:1017B0000100420000004200010041000000410021
:1017C0000100400001003F0000003F0001003E001A
:1017D00000003E0001003D0000003D0001003C0013
:1017E00000003C0000003C0001003B0000003B000A
:1017F00001003A0000003A00010039000000390001
:1018000001003800000038000000380001003700F7
:1018100000003700010036000000360000003600EE
:1018200001003500000035000000350001003400E3
:1018300000003400000034000100330000003300D9
:1018400000003300010032000000320000003200CE
:1018500001003100000031000000310001003000C3
:10186000000030000000300001002F0000002F00B9
:1018700000002F0000002F0001002E0000002E00AD
:1018800000002E0001002D0000002D0000002D00A2
:1018900000002D0001002C0000002C0000002C0096
:1018A00000002C0001002B0000002B0000002B008A
:1018B00000002B0001002A0000002A0000002A007E
:1018C00000002A0001002900000029000000290072
:1018D0000000290000002900010028000000280065
:1018E0000000280000002800000028000100270058
:1018F000000027000000270000002700000027004C
:10190000010026000000260000002600000026003E
:101910000000260001002500000025000000250031
:101920000000250000002500000025000100240023
:101930000000240000002400000024000000240017
:10194000010023000000230000002300000023000A
:1019500000002300000023000000230001002200FB
:1019600000002200000022000000220000002200EF
:1019700000002200010021000000210000002100E1
:1019800000002100000021000000210000002100D3
:1019900001002000000020000000200000002000C6
:1019A00000002000000020000000200000002000B7
:1019B00001001F0000001F0000001F0000001F00AA
:1019C00000001F0000001F0000001F0001001E009B
:1019D00000001E0000001E0000001E000000393044
:1019E00000003325000087190000B00F0000DB085D
:1019F0000000BD040000740200003F0100004545E6
:101A000050524F4D206461746173697A652065722C
:101A1000726F722E0A00290A002062797465733B86
:101A200020637263200053657474696E677320537A
:101A3000746F726564202800290A00206279746539
:101A4000733B2063726320002073746F726564209F
:101A500073657474696E67732072657472696576F4
:101A60006564202800202863616C63756C6174656F
:101A70006429210A0020213D2000454550524F4D48
:101A800020435243206D69736D61746368202D207B
:101A90002873746F7265642920002053697A653A4F
:101AA0002000496E6465783A2000204D61726C69AF
:101AB0006E3D563535290A0028454550524F4D3D5B
:101AC00000454550524F4D2076657273696F6E2008
:101AD0006D69736D61746368200020204E6F7A7A9F
:101AE0006C653A2000200066696C616D656E74203B
:101AF0006C6F6164005761697420666F720020200A
:101B00004E6F7A7A6C653A2000200066696C616DD0
:101B1000656E742070757267650057616974206620
:101B20006F7200746F20726573756D65005761691F
:101B30007420666F72207072696E7400000022005B
:101B4000250028002B002E00310034000201000087
:101B5000050108010B0100002000230026002900D8
:101B60002C002F00320000010000030106010901D2
:101B700005050505070508080808020202020A0A09
:101B80000808040404040101010101010101030327
:101B9000030303030303040707070C0C0C0C0C0CD2
:101BA0000C0C0202020206060606060606060B0BCF
:101BB0000B0B0B0B0B0B0102102020080810204010
:101BC0001020408002010201080402010102040801
:101BD000102040808040201008040201800402018F
:101BE00080402010080402010804020101020408D8
:101BF00010204080010204081020408000000A0BE1
:101C000002090C0D0E08070304010000000000008B
:101C100000000000000000000000000000000000C4
:101C20000000000000000000121110000000000081
:101C300000000000000000000000000000000000A4
:101C40000000024B494C4C45442E2000202D2049D9
:101C50006E76616C69642065787472756465722053
:101C60006E756D62657220210A002020506C616ED5
:101C70006E657242756666657242797465733A2064
:101C8000002046726565204D656D6F72793A2000BF
:101C9000436F6D70696C65643A2041707220313712
:101CA00020323031390A00207C20417574686F720F
:101CB0003A202854483344290A0000204C617374A8
:101CC00020557064617465643A20005448334420A0
:101CD00055312E52322E39620A004D61726C696E96
:101CE0000020536F66747761726520526573657466
:101CF0000A00205761746368646F672052657365DA
:101D0000740A002042726F776E206F7574205265DE
:101D10007365740A002045787465726E616C205298
:101D2000657365740A00506F77657255700A0073A9
:101D3000746172740A006175746F25692E6700659D
:101D400072726F722077726974696E6720746F2087
:101D500066696C650A00456E6473746F7073202544
:101D60006320256320256320256300205A3A002044
:101D7000593A0020583A00656E6473746F7073208E
:101D80006869743A2000446F6E6520736176696EED
:101D9000672066696C652E0A004D32390025753A58
:101DA0002530327500253032753A253032750025E0
:101DB000756420253032753A25303275005A005945
:101DC0000058000920000000000000000000000092
:101DD00000003FFFF00000000000000000000000D5
:101DE000003800700000000000000000000000004B
:101DF00030FC300000000000000000000000002067
:101E0000FC1000000000000000000000000020782E
:101E10001000000000000000000000000020301052
:101E20000000000000000000000000002C00D03F77
:101E3000C0000000000000002082002E31D07FE0B2
:101E4000000000000000001041002F7BD07FE00068
:101E50000000000000001041002F7BD07FE0000058
:101E600000000000002082002E31D03FC0000000A2
:101E7000000000004104002C00D03FC00000000022
:101E80000000008208002030107FE0000000000009
:101E900000008208002078107FE0000000000000B1
:101EA0000041040020FC107FE00000000000000062
:101EB00020820030FC301F80000000000000000085
:101EC00000003800700F0000000000000000FFFF5D
:101ED000C03FFFF0060000000000000000FFFFC050
:101EE0000000000000000000000000000000003FB3
:101EF000FFF00000000000000000000000003800BB
:101F0000700000000000000000000000003186307A
:101F10000000000000000000000000002387100007
:101F20000000000000000000000000278790000073
:101F3000000000000000000000002F87D00000001B
:101F40000000000000000000002F03D03FC0000090
:101F500000000000002082002030107FE000000020
:101F6000000000001041002078107FE00000000019
:101F70000000001041002078107FE0000000000009
:101F800000002082002030103FC000000000000050
:101F9000004104002F03D03FC000000000000000FB
:101FA0008208002F87D07FE0000000000000008240
:101FB00008002787907FE000000000000000410437
:101FC000002387107FE00000000000000020820056
:101FD0003186301F80000000000000000000003843
:101FE00000700F0000000000000000FFFFC03FFF76
:101FF000F0060000000000000000FFFFC00000002D
:1020000000060900FE000000000001090008FE00B3
:102010000005080806000040F0C888889878100578
:102020000808060000C0F88888888888F805050533
:102030000600012030F83020050808060000207056
:10204000F820202020E00509090600FF2070A8A83C
:10205000B8888870200509090600FFE080C0B0A894
:10206000283028280509090600FFF8A888888888EC
:1020700088A8F8050A0A0600FE205050505088A88B
:10208000A8887003030306000340A04070012C01E0
:1020900090012701B0012201C0011D01F0011801CA
:1020A0001002130130020E016002090190020401C6
:1020B000C002FF000003FA004003F5008003F000B7
:1020C000D003EB002004E6007004E100E004DC0033
:1020D0004005D700C005D2004006CD00D006C8009C
:1020E0008007C3003008BE00F008B900C009B40082
:1020F000B00AAF00B00BAA00D00CA500000EA000E3
:10210000500F9B00C01096005012910000148C00DC
:10211000C0158700B0178200B0197D00D01B780071
:10212000001E730040206E0090226900F0246400BD
:1021300040275F0090295A00E02B5500102E5000D8
:1021400020304B0010324600E033410090353C0017
:102150001037370070383200A0392D00B03A28000F
:10216000A03B2300603C1E00103D1900903D140070
:10217000103E0F00703E0A00C03E0500003F000008
:10218000403FFBFF803FF6FFC03FF1FF4265642008
:1021900068656174696E67206661696C6564004892
:1021A000656174696E67206661696C6564004531BC
:1021B0002048656174696E67206661696C656400BA
:1021C00048656174696E67206661696C65640010BA
:1021D00000C90210012C014001220170011801B058
:1021E000010E01F00104015002FA00B002F00030CB
:1021F00003E600D003DC009004D2007005C800A004
:1022000006BE000008B400B009AA00D00BA0006010
:102210000E960060118C000015820020197800C015
:102220001D6E00A0226400B0275A00902C500000C0
:10223000314600E0343C0010383200903A2800600B
:102240003C1E00A03D1400803E0A00203F000045D7
:1022500031204572723A204D415854454D50004549
:1022600072723A204D415854454D50204245440029
:102270004D415854454D50207472696767657265C9
:1022800064004531204572723A204D494E54454D07
:1022900050004572723A204D494E54454D502042EF
:1022A0004544004D494E54454D502074726967674E
:1022B00065726564004D383420582059204500204F
:1022C0002F002042403A0020403A00507265686575
:1022D000617420504C4120456E6400507265686501
:1022E000617420504C4120426564005072656865FD
:1022F000617420504C4100507265706172650050ED
:102300007265686561742041425320456E640050D7
:1023100072656865617420414253204265640050D3
:102320007265686561742041425300507265706146
:102330007265004D343238004D3238302050302034
:102340005331363000424C546F7563682053656CCE
:10235000662D54657374004D323830205030205350
:10236000313230005072656865617420414253001B
:102370005072656865617420504C4100436F6F6C0A
:10238000646F776E004368616E67652066696C6193
:102390006D656E74004368616E67652066696C6187
:1023A0006D656E74004D36303020423000446973E4
:1023B00061626C65207374657070657273004D386E
:1023C000340053657420686F6D65206F66667365B1
:1023D000747300526573657420424C546F75636862
:1023E00000466164652048656967687400466164F9
:1023F0006520486569676874004F6666004F6E2007
:1024000000426564204C6576656C696E67004C65BA
:1024100076656C20626564004732380A47323900BD
:1024200052756E204D34382054657374004732382D
:102430000A4D34382050313000486F6D65205A0005
:10244000473238205A00486F6D65205900473238AE
:10245000205900486F6D65205800473238205800D9
:102460004175746F20686F6D6500473238004D6F9D
:1024700076652061786973004D61696E0054483358
:102480004420424C546F7563682052656164792E14
:10249000005072696E74696E672E2E2E005072693C
:1024A0006E74207061757365640053746F77204299
:1024B0004C546F756368004D3238302050302053D3
:1024C0003930004465706C6F7920424C546F7563ED
:1024D00068004D3238302050302053313000424CAB
:1024E000546F7563682053656C662D546573740072
:1024F0004D32383020503020533132300052657325
:10250000657420424C546F756368004D323830203A
:1025100050302053313630004D61696E004D3132FC
:1025200035004D3234005072696E742061626F72F2
:1025300074656400496E69742E205344206361728F
:1025400064004D3231004E6F205344206361726449
:10255000004368616E6765205344206361726400C4
:102560004D3231005072696E742066726F6D205367
:10257000440053746F70207072696E7400526573FA
:10258000756D65207072696E740041626F7574209C
:102590005072696E74657200506175736520707257
:1025A000696E7400436F6E74726F6C005072657068
:1025B0006172650054756E6500496E666F207363C5
:1025C0007265656E004261627973746570205A00AD
:1025D0004368616E67652066696C616D656E740045
:1025E0004368616E67652066696C616D656E740035
:1025F0004D3630302042300042616279737465702C
:10260000205A00466C6F7700466C6F770046616E0B
:102610002073706565640046616E20737065656443
:102620000042656400426564004E6F7A7A6C650012
:102630004E6F7A7A6C65004661646520486569670B
:102640006874004661646520486569676874005372
:1026500070656564005370656564004D61696E0066
:102660004D31343520533C696E6465783E206F757A
:1026700074206F662072616E67652028302D3129C5
:102680000A005448334420424C546F756368204F0D
:1026900066662E00205A3A0020593A0020436F7592
:1026A0006E7420583A0020453A00205A3A002059CA
:1026B0003A00583A002C20002C20003A0043617068
:1026C0003A002F2F20002054002052004163636500
:1026D0006C65726174696F6E3A205000205A002058
:1026E0005900580020204D61783A2000205A0020DF
:1026F0005900580020204D696E3A20004F6E20008E
:102700004F666600536F667420656E6473746F70F5
:10271000733A200020466C6F773A200050726F7435
:1027200065637465642050696E0A000001363726BF
:1027300003FFFFFF353C3D380EFFFFFF312E303EDB
:1027400012FFFFFFFF28FF0C0809FFFFFF1A1C18EC
:10275000FFFF2A08440AFF434F66667365747320BF
:102760006170706C696564004572723A20546F6FD5
:10277000206661722100546F6F206661722066725C
:102780006F6D207265666572656E636520706F6936
:102790006E740A0020746F6F206C6F6E672065780E
:1027A00074727573696F6E2070726576656E74658C
:1027B000640A0020636F6C642065787472757369B5
:1027C0006F6E2070726576656E7465640A004D6187
:1027D000782054656D703A20313230004D696E209A
:1027E00054656D703A203500544265643A41544353
:1027F0002031303447542D32004D61782054656DBE
:10280000703A20323930004D696E2054656D703A4F
:1028100020350054303A204550434F53203130305A
:102820004B005053553A2047656E657269630050FE
:10283000726F746F636F6C3A20312E300042617595
:10284000643A203131353230300043522D3130532B
:102850000042696C696E656172204C6576656C69D1
:102860006E67004578747275646572733A20310042
:102870005448334453747564696F2E636F6D00540C
:1028800048334420424C546F756368000054483309
:10289000442055312E52322E3962004D61726C69DE
:1028A0006E00546865726D6973746F727300426F65
:1028B00061726420496E666F005072696E74657251
:1028C00020496E666F004D61696E004D36303020D4
:1028D000423020542564004D3730312054256400A7
:1028E0004D373032203B2564004D3730322054259F
:1028F00064004368616E67652066696C616D656E32
:1029000074005072656865617420414253005072D2
:10291000656865617420504C41004368616E67656D
:102920002066696C616D656E74005052494E54208A
:1029300050415553454400554E4C4F414420464963
:102940004C414D454E54004C4F41442046494C416A
:102950004D454E54005075726765206D6F7265006D
:10296000436F6E74696E756500524553554D452031
:102970004F5054494F4E533A0020204E6F7A7A6C94
:10298000653A20006368616E6765006F6620746851
:10299000652066696C616D656E74005761697420AD
:1029A000666F722073746172740020204E6F7A7AA1
:1029B0006C653A2000200066696C616D656E74205C
:1029C000756E6C6F6164005761697420666F720088
:1029D00020204E6F7A7A6C653A20002000506C659A
:1029E00061736520776169742E2E2E0048656174CD
:1029F000696E67206E6F7A7A6C650020204E6F7A60
:102A00007A6C653A2000200068656174206E6F7AE8
:102A10007A6C652E00507265737320627574746FE2
:102A20006E20746F0020204E6F7A7A6C653A200019
:102A3000746F20636F6E74696E75652E2E2E006143
:102A40006E6420707265737320627574746F6E00AB
:102A5000496E736572742066696C616D656E740091
:102A6000453120544845524D414C2052554E415716
:102A700041590042454420544845524D414C205252
:102A8000554E4157415900546865726D616C205232
:102A9000756E61776179006F70656E206661696C33
:102AA00065642C2046696C653A200043616E6E6F48
:102AB00074206F70656E20737562646972200065A2
:102AC00063686F3A00526573656E643A20006F6BFD
:102AD0000020746F6F206C6F6E672065787472755C
:102AE00073696F6E2070726576656E7465640A0036
:102AF00020636F6C6420657874727573696F6E20E3
:102B000070726576656E7465640A00627573793AF1
:102B10002070617573656420666F7220696E7075D0
:102B2000740A00627573793A207061757365642068
:102B3000666F7220757365720A00627573793A2048
:102B400070726F63657373696E670A004B494C4C12
:102B500045442E20004B494C4C20636175736564DD
:102B6000206279204B494C4C20627574746F6E2F33
:102B700070696E0A004B494C4C45442E20004B496D
:102B80004C4C2063617573656420627920746F6FAB
:102B9000206D75636820696E616374697665207461
:102BA000696D65202D2063757272656E7420636F88
:102BB0006D6D616E643A2000496E736572742066B3
:102BC000696C616D656E7420616E642070726573EE
:102BD0007320627574746F6E20286F72204D3130CF
:102BE00038290A00486F74656E6420746F6F206323
:102BF0006F6C640A0050726F62696E67206661696B
:102C00006C65640A0050726F62696E672066616964
:102C10006C656400205A3A200020593A2000426531
:102C20006420583A200053442063617264206F6B23
:102C30000A006F70656E526F6F74206661696C6513
:102C4000640A00766F6C756D652E696E6974206616
:102C500061696C65640A00534420696E697420667A
:102C600061696C0A004A756E6374696F6E20446511
:102C700076004A756E6374696F6E20446576004D08
:102C80006F74696F6E004573746570732F6D6D009E
:102C90004573746570732F6D6D005A73746570732E
:102CA0002F6D6D005A73746570732F6D6D005973BD
:102CB000746570732F6D6D005973746570732F6D2B
:102CC0006D005873746570732F6D6D005873746563
:102CD00070732F6D6D004D6F74696F6E0053746566
:102CE00070732F6D6D004A65726B00416363656C94
:102CF00065726174696F6E0056656C6F6369747993
:102D00000050726F6265205A204F666673657400CA
:102D100050726F6265205A204F6666736574004377
:102D20006F6E74726F6C004C6F6164206D6D004C3F
:102D30006F6164206D6D004C6F6164206D6D005596
:102D40006E6C6F6164206D6D00556E6C6F616420F8
:102D50006D6D00556E6C6F6164206D6D00436F6E1C
:102D600074726F6C0043616E6E6F7420656E746573
:102D700072207375626469723A2000022E2E00017F
:102D800052656672657368004D61696E0053746FB9
:102D900072652073657474696E67730042656400C0
:102DA000426564004E6F7A7A6C65004E6F7A7A6C79
:102DB000650046616E2073706565640046616E2033
:102DC00073706565640054656D70657261747572C9
:102DD00065005654726176206D696E0056547261BA
:102DE00076206D696E005654726176206D696E00B2
:102DF000566D696E00566D696E00566D696E0056AF
:102E00006D6178204500566D6178204500566D61F2
:102E100078204500566D6178205A00566D61782003
:102E20005A00566D6178205A00566D61782059001D
:102E3000566D6178205900566D6178205900566DA5
:102E40006178205800566D6178205800566D617881
:102E50002058004D6F74696F6E00416D6178204598
:102E600000416D6178204500416D6178205A004134
:102E70006D6178205A00416D6178205900416D6183
:102E800078205900416D6178205800416D617820AB
:102E90005800412D74726176656C00412D74726129
:102EA00076656C00412D7265747261637400412D0A
:102EB0007265747261637400416363656C004163A1
:102EC00063656C004D6F74696F6E00434F4D4D55D7
:102ED0004E49434154494F4E0044525952554E00B9
:102EE0004552524F525300494E464F004543484FBA
:102EF000004D3630303A20546F6F20636F6C6400A1
:102F0000486F74656E6420746F6F20636F6C640A21
:102F100000456E642066696C65206C6973740A00F4
:102F2000426567696E2066696C65206C6973740A16
:102F3000004D343820526573756C743A2025730047
:102F40005374616E6461726420446576696174696A
:102F50006F6E3A20002052616E67653A2000204D66
:102F600061783A2000204D696E3A20004D65616E0F
:102F70003A200046696E6973686564210A00207210
:102F8000616E67653A2000206D61783A2000206DFF
:102F9000696E3A2000207369676D613A2000206DE8
:102FA00065616E3A20003A207A3A2000206F662050
:102FB00000506F736974696F6E696E67207468651D
:102FC0002070726F62652E2E2E0A003F2028582C2A
:102FD0005929206F7574206F6620626F756E647357
:102FE0002E0A003F53616D706C652073697A65200D
:102FF0006E6F7420706C61757369626C6520283423
:103000002D3530292E0A004D343820546573742034
:1030100052756E6E696E672E2E2E0A003F28562955
:103020006572626F7365206C6576656C206572727F
:103030006F722028302D34292E0A00EC2EE72EE066
:103040002ED92ECB2E6F66660044454255473A0076
:10305000202844525952554E290047323920417593
:10306000746F20426564204C6576656C696E6700FC
:103070003F20284C2C522C462C4229206F7574205E
:103080006F6620626F756E64732E0A003F285629A2
:103090006572626F7365206C6576656C206973205C
:1030A000696D706C61757369626C652028302D34B0
:1030B000292E0A00426164205A2076616C75650AE7
:1030C000004E6F2062696C696E656172206772697B
:1030D000640A00205A3A200020593A2000426564D0
:1030E00020583A20004D65736820706F696E742017
:1030F00063616E6E6F74206265207265736F6C76AB
:1031000065640A00436C69636B20746F2072657399
:10311000756D652E2E2E004E6F206D6F76652E001C
:1031200048617264636F6465642044656661756CB0
:10313000742053657474696E6773204C6F616465A5
:10314000640A005E0100002C010000640000008899
:1031500013000000009643000096430000704100F9
:1031600000484266E69F4266E69F420000C843AEC2
:10317000C7BD423A0A0020286D6D290020204D3637
:10318000303320002055004C0046696C616D656E3F
:1031900074206C6F61642F756E6C6F6164206C6558
:1031A0006E677468733A0A0020204D383531205A12
:1031B000005A2D50726F6265204F66667365740009
:1031C00020440020490020204D333034205000207E
:1031D000440020490020204D333031205000504918
:1031E000442073657474696E67733A0A0020460060
:1031F00020420020480020204D3134352053004D1E
:103200006174657269616C206865617475702070A5
:103210006172616D65746572733A0A00205A00200C
:103220004A0020204732392057204900205A0020E8
:10323000204D3432302053004175746F2042656454
:10324000204C6576656C696E673A0A00205A00204A
:10325000590020204D323036205800486F6D6520CF
:103260006F66667365743A0A00204A002054002095
:10327000530020204D323035205100204A3C6A75E1
:103280006E635F6465763E00416476616E6365647B
:103290003A20513C6D696E5F7365676D656E745F52
:1032A00074696D655F75733E20533C6D696E5F6632
:1032B000656564726174653E20543C6D696E5F742F
:1032C000726176656C5F66656564726174653E0007
:1032D00020540020520020204D3230342050004134
:1032E0006363656C65726174696F6E2028756E69C1
:1032F00074732F7332293A20503C7072696E745F78
:10330000616363656C3E20523C72657472616374E4
:103310005F616363656C3E20543C74726176656CDA
:103320005F616363656C3E0A00204500205A0020FF
:10333000590020204D3230312058004D6178696DA0
:10334000756D20416363656C65726174696F6E2091
:1033500028756E6974732F7332293A0A002045006C
:10336000205A0020590020204D3230332058004D83
:103370006178696D756D20666565647261746573E9
:103380002028756E6974732F73293A0A002045004E
:10339000205A0020590020204D3932205800537403
:1033A0006570732070657220756E69743A0A00202A
:1033B000204D3134392043203B20556E69747320F1
:1033C000696E2043656C736975730A00202047326B
:1033D00031202020203B00506C65617365207265B0
:1033E000736574005052494E5445522048414C5424
:1033F0004544005072696E7465722068616C746532
:10340000642E206B696C6C28292063616C6C656488
:10341000210A00656E7175657565696E6720220009
:10342000000000000000000000000000000020423A
:103430000000204200000041000000005761726E51
:10344000696E673A20486F6D696E672042756D70CE
:103450002044697669736F72203C20310A000202B1
:10346000040000A0400000A040000000400000FA5E
:10347000430000FA430000FA43FFFFFF486F6D6905
:103480006E67206661696C65640054524947474520
:10349000524544006F70656E003A20007A5F6D6996
:1034A0006E00795F6D696E00785F6D696E005265C0
:1034B000706F7274696E6720656E6473746F7020CC
:1034C0007374617475730A00FFFDFCFAF8F6F4F288
:1034D000F0EEECEAE9E7E5E3E1E0DEDCDAD9D7D5C6
:1034E000D4D2D0CFCDCBCAC8C7C5C3C2C0BFBDBC64
:1034F000BAB9B7B6B4B3B2B0AFADACAAA9A8A6A5D5
:10350000A4A2A1A09E9D9C9A99989795949392901D
:103510008F8E8D8B8A8988878684838281807F7E47
:103520007D7B7A797877767574737271706F6E6D52
:103530006C6B6A696867666564636261605F5E5D43
:103540005C5B5A5958585756555453525150504F26
:103550004E4D4C4B4A4A49484746464544434242F1
:1035600041403F3E3E3D3C3B3B3A393838373635AB
:1035700035343332323130302F2E2E2D2C2B2B2A56
:1035800029292827272625252423232221212020F5
:103590001F1E1E1D1C1C1B1B1A1919181817161686
:1035A000151514131312121111100F0F0E0E0D0D0D
:1035B0000C0C0B0A0A09090808070706060505048A
:1035C00004030302020100000000000100000001EA
:1035D0000000800055555500000040003333330093
:1035E000AAAA2A004992240000002000C7711C00EA
:1035F00099991900D1451700555515003BB1130095
:103600002449120011111100000010000F0F0F00CB
:10361000E3380E0043790D00CCCC0C00C3300C0015
:10362000E8A20B0064210B00AAAA0A00703D0A0060
:103630009DD80900427B090092240900DCD30800D0
:10364000888808001042080000000800F0C1070048
:103650008787070075500700711C07003EEB0600C6
:10366000A1BC06006990060066660600703E060072
:103670006118060017F4050074D105005BB0050061
:10368000B2900500627205005555050078390500B5
:10369000B81E0500050505004EEC040087D40400A3
:1036A000A1BD040090A7040049920400C17D04005C
:1036B000EE690400C7560400444404005C32040070
:1036C0000821040041100400000004003FF0030042
:1036D000F8E0030026D20300C3C30300CCB5030007
:1036E0003AA803000A9B0300388E0300C081030040
:1036F0009F750300D0690300505E03001D53030053
:1037000034480300913D03003333030016290300BE
:10371000381F030097150300300C03000303030058
:103720000BFA020049F10200BAE802005CE0020074
:103730002DD802002DD0020059C80200B0C00200EE
:1037400031B90200DAB10200AAAA0200A0A3020065
:10375000BC9C0200FA9502005C8F0200DF88020028
:1037600082820200457C0200277602002770020058
:10377000436A02007C640200D05E02003F590200EE
:10378000C8530200486F6D6520257325732573208B
:103790006669727374002066697273740A005A0055
:1037A00059005800486F6D65200057726974696E42
:1037B0006720746F2066696C653A20006F70656ED3
:1037C000206661696C65642C2046696C653A20004E
:1037D0006F70656E206661696C65642C2046696C4B
:1037E000653A200046696C652073656C6563746595
:1037F000640A002053697A653A200046696C6520A6
:103800006F70656E65643A20002066696C653A20C9
:1038100000646F696E67006672657368004E6F774B
:103820002000454E4420535542524F5554494E4571
:103830000A002220706F73002220706172656E741E
:103840003A2200535542524F5554494E4520434168
:103850004C4C207461726765743A22004B494C4CA1
:1038600045442E2000747279696E6720746F20635E
:10387000616C6C207375622D67636F646520666987
:103880006C6573207769746820746F6F206D616E4A
:1038900079206C6576656C732E204D4158206C65DF
:1038A00076656C2069733A004572726F723A004D0A
:1038B0003234004D323320257300556E6B6E6F77B6
:1038C0006E20636F6D6D616E643A202200626564E4
:1038D0000A002C2073797374656D2073746F707097
:1038E000656421204865617465725F49443A20002F
:1038F000B800B60011241FBECFEFD1E2DEBFCDBFAE
:1039000000E00CBF13E0A0E0B2E0E4ECF1E602E07E
:103910000BBF02C007900D92A838B107D9F727E175
:10392000A8E8B3E001C01D92A931B207E1F71CE19C
:10393000C9E7DCE100E006C021970109802FFE0104
:103940000F944630C837D10780E00807A9F70F94D5
:103950008B190D94D1300C9400002F923F924F920E
:103960005F926F927F928F929F92AF92BF92CF920F
:10397000DF92EF92FF920F931F93CF93DF93CDB718
:10398000DEB7C858D1090FB6F894DEBF0FBECDBF61
:1039900021E02093160C8091330B8D3409F4C5C4BB
:1039A000843511F40C947533873411F00C94C133C1
:1039B0008091310B9091320B8C31910509F441C209
:1039C000A4F4843091054CF48230910574F597FD90
:1039D000A8C40E94BFF10C94C3338430910509F44C
:1039E000C9C14B9709F405C29CC48A32910509F4F8
:1039F0001AC45CF48D31910509F411C44E9709F095
:103A000090C40E943AEC0C94C3338B35910509F4B1
:103A10000EC48C35910509F40EC48A35910509F060
:103A200080C410928C030C94C33320915B02222338
:103A300011F40C94C33311E0029709F010E00E94D6
:103A4000124419821A821B821C821D821E821F82CE
:103A5000188682E50E940644882309F43EC10E942C
:103A60008C436B017C012091550C3091560C409198
:103A7000570C5091580C28AB39AB4AAB5BAB8090DC
:103A8000590C90905A0CA0905B0CB0905C0C8091FB
:103A9000170C9091180CA091190CB0911A0C8CABCA
:103AA0009DABAEABBFAB20911B0C30911C0C409179
:103AB0001D0C50911E0C28AF39AF4AAF5BAF20E010
:103AC00030E0A901C701B6010F94A826882309F4A4
:103AD0001AC128A939A94AA95BA96CA97DA98EA9EF
:103AE0009FA90F94A82681110BC0A501940168AD70
:103AF00079AD8AAD9BAD0F94A826882309F403C144
:103B000020E030E0A901C701B6010F94A826881F64
:103B10008827881F18130BC080E090E0A0E8BFE35F
:103B20002C968CAF9DAFAEAFBFAF2C970AC020E0F4
:103B300030E040E85FEB2C962CAF3DAF4EAF5FAF6F
:103B40002C9728A939A94AA95BA96CA97DA98EA996
:103B50009FA90F94452D24966CAF7DAF8EAF9FAF7C
:103B60002497A501940168AD79AD8AAD9BAD0F9402
:103B7000452D28966CAF7DAF8EAF9FAF28972496CA
:103B80002CAD3DAD4EAD5FAD2497CA01B9010F9488
:103B90000D272B013C0128962CAD3DAD4EAD5FAD00
:103BA0002897CA01B9010F940D279B01AC01C301ED
:103BB000B2010F94462D0F94B22F6CAF7DAF8EAF34
:103BC0009FAF20E030E040E05FE30F940D272B0132
:103BD0003C01A7019601C701B6010F940D276B01A7
:103BE0007C01A3019201C301B2010F940D279B0137
:103BF000AC01C701B6010F94452D0F94B22F9B0164
:103C0000AC012C966CAD7DAD8EAD9FAD2C970F9415
:103C10000D276B017C012CA93DA94EA95FA968A9BC
:103C200079A98AA99BA90F94462D20E030E040E0B5
:103C30005FE30F940D272B013C0128966CAD7DAD01
:103C40008EAD9FAD289790582CAD3DAD4EAD5FAD7C
:103C50000F94222E9B01AC01C701B6010F940D27D2
:103C60009B01AC01C301B2010F94462D28A939A9CB
:103C70004AA95BA90F94452D69837A838B839C8322
:103C800028AD39AD4AAD5BADC501B4010F94462DE9
:103C900020E030E040E05FE30F940D272B013C0172
:103CA0002CAD3DAD4EAD5FAD24966CAD7DAD8EAD12
:103CB0009FAD24970F94222E9B01AC01C701B60142
:103CC0000F940D279B01AC01C301B2010F94462D47
:103CD000A50194010F94452D12C089E40E94064469
:103CE000882331F00E948C4369837A838B839C8381
:103CF0008AE40E940644882331F00E948C436D833D
:103D00007E838F83988720E030E0A90169817A81E2
:103D10008B819C810F94A82681110BC020E030E09C
:103D2000A9016D817E818F8198850F94A8268823B3
:103D300039F0612FCE0101960E9405D20C94C33355
:103D4000E8EAF8E384918F010F5F1F4F882321F089
:103D50000E94AC44F801F6CFEDEAF2E084918F01C5
:103D60000F5F1F4F882311F40C94C3330E94AC449F
:103D7000F801F4CF80E50E940644882329F00E94D0
:103D80004C436B017C0103C0C12CD12C760183E52F
:103D90000E940644882361F00E948C4320E030E0BA
:103DA0004AE754E40F940D270F948F2E6B017C018A
:103DB0000E94B5B680916810811105C060E083EC67
:103DC00092E00E947B5D0E94FE55C60ED71EE81E43
:103DD000F91E0E94FE55DC01CB018C199D09AE092C
:103DE000BF09B7FD02C00C94C33380E00E94EAC251
:103DF000F0CF0F94200981110C94C33380E090E040
:103E0000A0E2B1E489839A83AB83BC838D839E83D4
:103E1000AF83B88789879A87AB87BC8780E50E9484
:103E20000644882319F00E945C4301C060E06C8F57
:103E3000BE016F5F7F4FCE014C960F94DD010C9455
:103E4000C3338091440C8770873071F48FE40E94F3
:103E50000644882319F00E947D4303C08FE40E942A
:103E6000BF4381110C94C3330E94B5B63091F7065D
:103E700025963FAF259780E00E94044280EA90E0BB
:103E80000E944B3E80E00E94B6440E946F3E11E0CB
:103E90001093EA0488E50E94BF43282E89E50E941A
:103EA000BF43382E8AE50E94BF4388AF211004C06B
:103EB000311004C0182705C0311002C010E001C045
:103EC00018AD0E94984482E50E940644882361F060
:103ED0000E948C436B017C0120E030E0A9010F942B
:103EE000A826882379F106C0C12CD12CE0E2EE2E61
:103EF000E1E4FE2E111105C0211003C0332009F4A6
:103F000018C1C0921F0CD092200CE092210CF092AC
:103F1000220C20915D0C30915E0C40915F0C509111
:103F2000600CC701B6010F946C2F18165CF419824F
:103F30001A821B821C82BE016F5F7F4F8FE19CE063
:103F40000E948C3F11110DC0211003C03110ECC034
:103F5000F0C0311006C080E00E94F4F91123B1F3E3
:103F6000E3C01092590C10925A0C10925B0C1092F4
:103F70005C0C1092550C1092560C1092570C10922B
:103F8000580C0E94FA40E9E7F4E3449129964FAFB8
:103F90002997EDE6F4E385909590A590B490E1E73C
:103FA000F4E3C590D590E590F490A7019601C50182
:103FB000B4010F946C2F18162CF4A5019401C701BD
:103FC000B60104C0A7019601C501B4010F94222EC9
:103FD0002B013C01E0E3F4E385919591A591B49127
:103FE00088AB99ABAAABBBABECE2F4E3259135917E
:103FF000459154912CAB3DAB4EAB5FAB9C01AD01F9
:104000006CA97DA98EA99FA90F94A82687FD0AC037
:1040100008A939A93CAF4AA921964FAF21975BA9BE
:1040200058AB09C00CA98DA98CAF9EA921969FAF52
:104030002197AFA9A8ABA3019201C301B2010F94CC
:104040000D2720E030E040E85FE30F94462D0F9409
:10405000B22F9B01AC01602F7CAD21968FAD2197D3
:1040600098A90F940D2768A379A38AA39BA3EAE7D5
:10407000F4E3049120E030E040EC5FE3C701B601D7
:104080000F940D276B017C01602F000F770B880BBD
:10409000990B0F94AE269B01AC01C701B6010F949A
:1040A0000D2769837A838B839C8320E030E040EC8A
:1040B0005FE3C501B4010F940D276B017C012996C4
:1040C000BFAD29976B2FBB0F770B880B990B0F9404
:1040D000AE269B01AC01C701B6010F940D276C8F72
:1040E0007D8F8E8F9F8FAE01405E5F4FBE016F5FF1
:1040F0007F4FCE014C960E946B3F0F941903109294
:10410000590C10925A0C10925B0C10925C0C10928D
:10411000550C1092560C1092570C1092580C11110D
:104120001ACF211018CF12CF81E00E94F4F911119B
:1041300004C0E8ADEE2309F45EC08091440C8370A6
:104140008330E9F060E08BED92E00E947B5DEFEB65
:10415000FAE284918F010F5F1F4F882321F00E94A4
:10416000AC44F801F6CFECECF2E084918F010F5FE4
:104170001F4F8823F1F10E94AC44F801F6CF0E9452
:10418000FA4080915D0C90915E0CA0915F0CB09113
:10419000600C80931F0C9093200CA093210CB09383
:1041A000220C80E090E0AAE4B3E48093170C909393
:1041B000180CA093190CB0931A0C80E090E0ACE7B7
:1041C000B3E480931B0C90931C0CA0931D0CB09334
:1041D0001E0C19821A821B821C82AE014F5F5F4F38
:1041E0006BE17CE087E19CE00E946B3F82E00E94F3
:1041F000F4F90E94F2EB0E94FA408091E904809366
:10420000EA0425968FAD25970E9404420E94563EEF
:1042100083E0809355020E9404A40C94C3330E944F
:1042200034ED0C94C3330E9402EB0C94C3332093FF
:104230008C030C94C33360E6262E62E0362E7BE1BD
:10424000C72E7DE0D72EE12CF12C00E010E0D1014B
:104250008D911D010E940644882309F44EC00E94DE
:104260008C432B013C01133059F0F701EB5BF34F0A
:1042700020813181428153810F94452D2B013C01D6
:10428000F701EB5AF34F2081318142815381C30101
:10429000B2010F94452D4B015C012DEB37E346E84D
:1042A00055EB0F946C2F87FD0AC02DEB37E346E8E2
:1042B00055E3C501B4010F94A8261816F4F4133081
:1042C00051F44092610C5092620C6092630C7092B7
:1042D000640C01E012C0A5019401F60160817181B6
:1042E000828193810F94462DD6016D937D938D939A
:1042F0009C931397812F0E9447401F5FB4E0CB0E21
:10430000D11CE4E0EE0EF11C143009F0A0CF002324
:1043100021F081E69CE00F94450A0E9404A40C94CD
:10432000C3330F9492110C94C3338091310B90914D
:10433000320B8737910509F4C2C50CF0E1C08C340B
:10434000910509F436C40CF05EC08931910509F479
:10435000F8C14CF58431910509F4E1C194F481313F
:10436000910509F4D8C144F4029710F00C9472330B
:104370000E9476EA0C94C333429709F429C50C9441
:1043800072338631910509F4D2C10CF4CCC1873166
:10439000910509F4D2C1489711F00C9472330E9430
:1043A0006CE70C94C3338E31910509F468C284F430
:1043B0008B31910509F4E1C10CF4D1C18C31910527
:1043C00009F453C24D9711F40C94C3330C94723317
:1043D0008033910509F4DCC34CF48F31910509F465
:1043E00031C3809709F4E8C20C9472338934910583
:1043F00009F4D2C38B34910511F00C9472330F94ED
:104400004C170C94C3338B36910509F4D1C40CF0CE
:1044100040C08435910509F4DBC4E4F4813591058D
:1044200009F4CEC44CF48D34910511F00C94723320
:104430000F949A170C94C3338235910509F4C4C4C0
:104440008335910511F00C94723381E080938B03D6
:104450000C94C3338836910509F4AFC36CF48535E9
:10446000910509F4B9C48C35910511F00C9472339F
:104470000E9437A60C94C3338936910509F423C4EE
:104480008A36910511F00C9472330E94DFE30C948C
:10449000C3338037910509F4E2C39CF48D3691054E
:1044A00009F453C40CF4D7C38E36910509F4C0C384
:1044B0008F36910511F00C9472330E9440E30C94F6
:1044C000C3338337910509F48BC46CF481379105AC
:1044D00009F4CDC38237910511F00C9472330E9418
:1044E000FCA50C94C3338537910509F4D7C48637EE
:1044F000910511F00C9472330E946EA30C94C33397
:104500008F32F1E09F0709F455C70CF075C08D3C60
:10451000910509F4F1C4A4F58139910509F4E0C4C9
:104520009CF48937910509F4D5C40CF4CCC48D37BB
:10453000910509F441C48C38910511F00C94723343
:104540000E94B7E30C94C333893C910509F4CCC4B1
:1045500054F48B39910509F4D1C38E3B910509F4CC
:1045600010C40C9472338B3C910509F4C1C48C3C8B
:10457000910511F00C9472330E9418A20C94C3336D
:10458000823E910509F432C5DCF4833D910509F4BE
:1045900025C54CF48E3C910511F00C9472330E94A9
:1045A000D4A50C94C3338C3D910509F41BC58D3DF6
:1045B000910511F00C9472330E94C9A00C94C3337E
:1045C0008C3231E0930709F4D1C55CF4883151E0B5
:1045D000950709F40FC58232914009F4B9C50C94CE
:1045E00072338D32B1E09B0709F4EAC58E329140F7
:1045F00009F489C60C947233853FF1E09F0711F4EA
:104600000C9481300CF048C0823931E0930711F4EA
:104610000C94D22E04F5833651E0950711F40C94D6
:10462000B62E3CF48033914011F40C94392E0C9446
:1046300072338039E1E09E0711F40C94CF2E81395A
:10464000914011F00C94723381E00E94AA3F0E94C5
:1046500004A40C94C333853A21E0920711F40C941E
:10466000E92F64F48A3941E0940709F4FCC2843AE2
:10467000914011F40C94DA2E0C9472338C3AA1E030
:104680009A0709F4A7C4843F914011F00C94723347
:104690000E9414750C94C3338835E2E09E0711F430
:1046A0000C94BF30B4F4873F21E0920711F40C94CE
:1046B000873014F40C948430883F41E0940711F45F
:1046C0000C9493308C30924011F40C94B6300C94CE
:1046D00072338B38A3E09A0711F40C94C3336CF453
:1046E0008B35E2E09E0711F40C94833283359340BE
:1046F00011F40C940C330C947233803A23E092073B
:1047000009F49CC1873E934011F00C9472330E94CF
:1047100002A00C94C3330E9468EA0C94C3330E9435
:10472000BBE70C94C3330E948ACC0C94C333109221
:104730003308109234080C94C3330E94A7E70C94FA
:10474000C333109233080F94851789EE92E090934B
:10475000C1168093C0160E949B400C94C333809175
:104760003408882311F40C94C33383E50E94064473
:1047700081110C94C8330C94C33383E40E94BF436B
:10478000882399F1EBE1F3E084918F010F5F1F4FD4
:10479000882321F00E94AC44F801F6CF8091500AA2
:1047A000882391F0BE016F5F7F4F8DE49AE00E94F5
:1047B0002A538E010F5F1F4FD8018D918D018823E1
:1047C00079F00E94AC44F8CFEEEEF2E084918F01D4
:1047D0000F5F1F4F882321F00E94AC44F801F6CFF1
:1047E0008AE00E94AC440C94C3338091340888233F
:1047F00071F180913308882351F1E8EFF2E0849160
:104800008F010F5F1F4F882321F00E94AC44F801F5
:10481000F6CF6091FE0A7091FF0A8091000B909193
:10482000010B4AE00E9412488FE20E94AC44609162
:10483000FA0A7091FB0A8091FC0A9091FD0A4AE005
:104840000E9412488AE00E94AC440C94C333EAE010
:10485000F3E084918F010F5F1F4F882311F40C94B4
:10486000C3330E94AC44F801F4CF40E060E0809193
:104870002F0B9091300B0F94D0060C94C333809182
:104880003408882311F40C94C3338DE49AE00E9419
:10489000E84C8DE49AE00E94A953109232081092DD
:1048A000310800912F0B1091300B80913408882330
:1048B00011F40C94C3330E9419C1B801CE014C9677
:1048C0000E9461C08C01892B11F40C94C3336C8D50
:1048D0007D8D6115710511F06C5F7F4F19821C820F
:1048E00022E0A801CE0101960E94B153811102C0BD
:1048F000F12C1EC0CE0101960E9424BC8823C1F376
:104900006D857E858F85988941E00E94394B88238B
:1049100079F3E989B0E2EB9FF0011124E55CF14FF6
:10492000309731F385EE80831C820E94F94AF82E7D
:10493000CE0101960E949244FF2021F1EAE2F3E0C9
:1049400084917F012FEFE21AF20A882321F00E945E
:10495000AC44F701F5CFD8018D918D01882319F072
:104960000E94AC44F8CF8AE00E94AC441092FE0A48
:104970001092FF0A1092000B1092010B0E9427BFA9
:104980000C94C333E8E3F3E084917F01BFEFEB1AAB
:10499000FB0A882321F00E94AC44F701F5CFF8010F
:1049A00081918F01882319F00E94AC44F8CF8EE2E8
:1049B0000E94AC440C94C3338091330881110E944F
:1049C000B5B680913408882311F40C94C33380E584
:1049D0000E940644882319F00E947D4303C080E5AD
:1049E0000E94BF43182F482F61E080912F0B9091B8
:1049F000300B0F94D00683E50E940644882381F093
:104A00000E945C43AB01BC014093FE0A5093FF0A35
:104A10006093000B7093010B8DE49AE00E94294D86
:104A200080913408882319F081E0809333081111B4
:104A30000C94C3330F944C170C94C3330E9461E75A
:104A40000C94C3330F9418175CE3C52ED12CE12CC2
:104A5000F12CA70196010F94E82C762E672ECA013F
:104A6000B901A70196010F94E82C6B017C01CA01E2
:104A7000B90128E130E040E050E00F94E82C4B0110
:104A80005C01C9016DE671E00F941F308E010F5F6C
:104A90001F4F6115710599F06F927F92DF92CF924F
:104AA0009F928F929F938F937F936F9388E793E06A
:104AB0009F938F931F930F930F94412612C00097DB
:104AC000B1F06F927F92DF92CF929F928F929F93DD
:104AD0008F9388E693E09F938F931F930F930F9488
:104AE00041260FB6F894DEBF0FBECDBF36C081148D
:104AF0009104A104B10479F06F927F92DF92CF927A
:104B00009F928F928CE593E09F938F931F930F93C7
:104B10000F944126E6CFC114D104E104F10469F0F9
:104B20006F927F92DF92CF9284E593E09F938F9371
:104B30001F930F930F944126D4CF6F927F9280E5FD
:104B400093E09F938F931F930F930F9441260F90A1
:104B50000F900F900F900F900F9060E0C8010E948F
:104B6000B75DEFEBFAE284917F01BFEFEB1AFB0A2E
:104B7000882321F00E94AC44F701F5CFB8018CE8FE
:104B800093E00F94570F8AE00E94AC440C94C33317
:104B90000E94FBE30C94C3338091330881110C9481
:104BA000C33380E50E94BF4381110C94D9330C9428
:104BB000C3330F9485170C94C33388E690E00E94AA
:104BC000784881110C94C33380913F0C83FF02C05D
:104BD0000C94C33383E50E940644882311F40C949B
:104BE000C3330E948C430F948A2E20915902309136
:104BF0005A0225503109261737070CF4B901709372
:104C00003E0C60933D0C80E00E9484900E948C4397
:104C100020E030E04AEA52E40F94A826181614F473
:104C20000C94C3330F949A170E94BA9D0C94C3330B
:104C30008EE40E940644882311F40C94C3330E942E
:104C40005C436093AE107093AF108093B01090935C
:104C5000B1100C94C333109238020C94C33389E919
:104C600093E00E9468FC0E9417A00C94C33383E574
:104C70000E940644882369F00E946C438D3320F41F
:104C8000809330020C94C3338CE3809330020C94F5
:104C9000C333EFEBFAE284918F010F5F1F4F88233C
:104CA00021F00E94AC44F801F6CF4091300250E070
:104CB00060E070E082EA93E00F94040F8AE00E94C3
:104CC000AC440C94C33389E690E00E94784881118B
:104CD00011C0E9EAF3E084918F010F5F1F4F882331
:104CE00021F00E94AC44F801F6CF0E94BD8D8AE00D
:104CF0000E94AC441092160C0C94873983E50E94F4
:104D00000644882311F40C94C3330E946C43182F7B
:104D10008D3308F01CE31093D60B0E94FE556B01F7
:104D20007C01212F30E0A8EEB3E00F94362DC60EA3
:104D3000D71EE81EF91EC092D20BD092D30BE09280
:104D4000D40BF092D50B0C94C3338DE690E00E9407
:104D5000784881110C94C33380913F0C83FF02C0CB
:104D60000C94C33383E50E94064488AB81110C94F4
:104D7000E43382E50E94064481110C94E4330C94E0
:104D8000C33380913F0C83FF02C00C94C33383E58F
:104D90000E94064429968FAF299781110C949A3569
:104DA00082E50E94064481110C949A350C94C33319
:104DB0000E94D0E30C94C3330E94D6A20C94C33358
:104DC0000E9437A70C94C33310928B030C94C33307
:104DD0000E94D9A60C94C3330E94C1A60C94C3337D
:104DE000EBECF4E084918F010F5F1F4F882321F0DB
:104DF0000E94AC44F801F6CF60E08BEB94E00E9497
:104E0000C0A361E084EB94E00E94C0A360E089EA63
:104E100094E00E94C0A361E089E994E00E94C0A3ED
:104E200060E080E994E00E94C0A361E086E894E03D
:104E30000E94C0A361E08CE794E00E94C0A361E0FF
:104E400084E794E00E94C0A361E086E694E00E94BB
:104E5000C0A361E088E594E00E94C0A360E089E41B
:104E600094E00E94C0A360E08BE394E00E94C0A3A2
:104E700060E085E294E00E94C0A360E084E194E0F9
:104E80000E94C0A360E08FEF93E00E94C0A361E0A6
:104E90008CEE93E00E94C0A30C94C33380912F0B3F
:104EA0009091300BDC012C91222329F060E00E94CC
:104EB000B75D0C94C3330E94BA9D0C94C3330F9416
:104EC000F2020C94C33381E08093EA048093E904F6
:104ED0000C94C3331092EA041092E9040C94C33387
:104EE0000E944AA70C94C3330E94B1A20C94C3330E
:104EF0000E948FA20C94C33381E50E94BF43882394
:104F000051F00E944C4360931E0770931F078093DB
:104F100020079093210783E50E94BF43882351F027
:104F20000E948C436093810C7093820C8093830C5D
:104F30009093840C84E50E94BF43882351F00E9423
:104F40008C4360937D0C70937E0C80937F0C9093C8
:104F5000800C8AE40E94BF43882311F40C94C3336D
:104F60000E948C436B017C012AE037ED43E25CE355
:104F70000F946C2F87FD14C02AE939E949E95EE3F3
:104F8000C701B6010F94A826181654F0C092650CFC
:104F9000D092660CE092670CF092680C0C94C333CC
:104FA000E8EAF8E384918F010F5F1F4F81110EC073
:104FB000E6E4F5E084918F010F5F1F4F882311F421
:104FC0000C94C3330E94AC44F801F4CF0E94AC446B
:104FD000F801E8CF0E94CFA40C94C3330E943AA1F9
:104FE0000C94C3330E942EA10C94C3330E9455A08D
:104FF0000C94C33380E50E94BF43882311F40C94C2
:10500000C3330E945C436B017C018B01672B09F069
:1050100080C083E50E94BF43882341F00E945C4327
:1050200080E198E00F94DA0D0C94C333EFEBFAE2D1
:1050300084917F01BFEFEB1AFB0A882321F00E94C5
:10504000AC44F701F5CF60E070E08EE795E00F9497
:105050003E0F8091120828E532E06901C81AD10894
:1050600087FDD394CC0CDD1CCC0CDD1C0D2C000C6E
:10507000EE08FF088091110828E830E04901881AFD
:10508000910887FD9394880C991C880C991C092C15
:10509000000CAA08BB08809110088F3FB9F090E07F
:1050A000FC01EE0FFF1F8E0F9F1FFC01ED55F84F07
:1050B00001811281B3E0000F111FBA95E1F784E07E
:1050C000169507958A95E1F70E5F1F4F98012F5FA0
:1050D0003F4FC901330FAA0BBB0B9C01AD0128192F
:1050E00039094A095B09A4EBB0E00F94262DA7010A
:1050F0009601281939094A095B090F940A2DB9014B
:105100008BE795E00F943E0F8AE00E94AC440C942C
:10511000C333E8EAF8E384918F010F5F1F4F8823C0
:1051200021F00E94AC44F801F6CFB60184E795E087
:105130000F943E0FE5E6F5E084918F010F5F1F4F5E
:10514000882311F40C94C3330E94AC44F801F4CFCB
:105150008AE50E94064481110C944C3783E50E9435
:10516000064481110C944C370C94C33383E50E94A0
:105170000644882319F00E945C4302C064E071E099
:105180007D8F6C8F80E50E940644882339F00E9451
:105190005C436938E3E17E0730F402C068EE73E0F7
:1051A0007A83698304C088E893E19A838983BE0186
:1051B000645E7F4FCE0101960F94B9080C94C333FF
:1051C00085E40E940644811110C080E50E94BF431F
:1051D000882391F00E948C436093450470934604A9
:1051E000809347049093480407C00E946C4388232F
:1051F00061F3E8EAF8E36FC089E40E94BF438823C3
:1052000081F00E948C432CEA35EC47E25EE30F9478
:105210000D2760934D0470934E0480934F04909338
:10522000500484E40E94BF43882381F00E948C4391
:105230002CEA35EC47E25EE30F94222E609349049A
:1052400070934A0480934B0490934C04EFEBFAE282
:1052500084918F010F5F1F4F882321F00E94AC447F
:10526000F801F6CF409145045091460460914704FF
:10527000709148048EE895E00F94210F2CEA35ECEC
:1052800047E25EE360914D0470914E0480914F04BB
:10529000909150040F94222EAB01BC018AE895E056
:1052A0000F94210F2CEA35EC47E25EE3609149044C
:1052B00070914A0480914B0490914C040F940D27F7
:1052C000AB01BC0186E895E00F94210F8AE00E94B3
:1052D000AC440C94C33384918F010F5F1F4F88231C
:1052E00021F00E94AC44F801F6CFE2E9F5E08491A8
:1052F0008F010F5F1F4F882311F40C94C3330E945A
:10530000AC44F801F4CF83E50E94BF43182F8823F3
:1053100071F00E948C430F948A2E70933A0260932E
:10532000390221E0672B09F020E020933C0C80E556
:105330000E94BF43882361F02091390230913A02E4
:10534000232B11F00E947D4380933C0C0C94C333BB
:1053500011110C94C333EFEBFAE284918F010F5FCC
:105360001F4F882321F00E94AC44F801F6CF8091B2
:105370003C0C811103C069E473E002C066E473E091
:1053800089EB95E00F94570F6091390270913A02C2
:1053900088EA95E00F943E0FE4EAF5E084918F01EE
:1053A0000F5F1F4F882311F40C94C3330E94AC4449
:1053B000F801F4CF85E40E940644882321F00E947E
:1053C0005C437B0102C0E12CF12C83E40E94064483
:1053D000882331F00E945C43A3966FAFA39704C06B
:1053E000F5E0A396FFAFA39785E50E9406448823C6
:1053F00019F00E947D4303C085E50E94BF43AF962C
:105400008FAFAF97F7FC07C0812C912CE6E1AE2E51
:10541000E3E4BE2E06C0812C912C7CE8A72E72E41A
:10542000B72E83E50E940644882321F00E948C4316
:105430004B015C01E114F10411F41092C3061092C7
:10544000160C0E2D0E94FE552B013C01E7FC04C0FA
:1054500068E7C62ED12C03C050EFC52ED12C61E0D9
:105460006E0D623070F0E4EAF7E084918F010F5F17
:105470001F4F882311F40C94C3330E94AC44F801ED
:10548000F4CF07FD12C0E02FEE0FFF0BE75AFD4FE0
:10549000608171816F507109072E000C880B990B88
:1054A0000F94AE269B01AC0104C020E030E042ED39
:1054B00052E4C501B401CF57DF4F2883C158D04013
:1054C000CE57DF4F3883C258D040CD57DF4F488387
:1054D000C358D040CC57DF4F5883C458D0400F94A6
:1054E0008A2E072E000C880B990B0F94AE266CAFFA
:1054F00021967FAF219725968FAF259729969FAF4D
:105500002997CF57DF4F2881C158D040CE57DF4F62
:105510003881C258D040CD57DF4F4881C358D04062
:10552000CC57DF4F5881C458D0400F946C2F1816B9
:1055300074F4E5E6F7E084918F010F5F1F4F882335
:1055400011F40C94C3330E94AC44F801F4CFE0E9A9
:10555000F7E084917F012FEFE21AF20A882321F00D
:105560000E94AC44F701F5CF0E94CF9007FF04C022
:105570008FE78093C20608C0E02F002E000CFF0BBF
:10558000EF53F94F8FE780839601A8EEB3E00F94B5
:10559000362DE3966CAF7DAF8EAF9FAFE397DC0106
:1055A000CB01840D951DA61DB71DEF968CAF9DAF49
:1055B000AEAFBFAFEF9781E080933802AA964CAEB2
:1055C0005DAE6EAE7FAEAA97E7964CAE5DAE6EAEA8
:1055D0007FAEE797A6961FAEA697EB961CAE1DAEC4
:1055E0001EAE1FAEEB9769961FAE699790E46A9660
:1055F0009FAF6A97ACE16B96AFAF6B97B6E46C96D2
:10560000BFAF6C976D961FAE6D976E961FAE6E977F
:105610006F961FAE6F97A0961FAEA09768961CAEB0
:105620001DAE1EAE1FAE689764961CAE1DAE1EAEBC
:105630001FAE6497C12CD12C76012FE730E040E0FB
:1056400050E028AF39AF4AAF5BAF3FE7832E912CD4
:10565000A12CB12CAE961CAE1DAE1EAE1FAEAE97E9
:1056600031E0A5963FAFA5972E961FAE1EAE2E97A2
:1056700010E018AA212C312C802F002E000C990B41
:10568000AC014F53594FC158DF4F59834883CF570F
:10569000D040880F991F880F991FDC01A95CB34F78
:1056A000A296BFAFAEAFA297A396EFADA3970E2E73
:1056B000000CFF0BA496FFAFEEAFA49780913802C9
:1056C000882309F42AC10E94FE556CAB7DAB8EABDA
:1056D0009FAB8091BD06882309F4FEC00E94A19172
:1056E00007FF0AC01091A606F091A706F8AB20901C
:1056F000A8063090A9060EC0A296AEADBFADA29787
:105700001C911196BC91B8ABA296EEADFFADA297DD
:1057100022803380212F38A9A1016D966FAD6D973E
:105720006E967FAD6E976F968FAD6F97A0969FAD7B
:10573000A0970F94A82687FF0DC06D961FAF6D9799
:10574000F8A96E96FFAF6E976F962FAE6F97A096E3
:105750003FAEA097212F38A9A10169966FAD699737
:105760006A967FAD6A976B968FAD6B976C969FAD7F
:105770006C970F946C2F18166CF469961FAF69978D
:1057800028A96A962FAF6A976B962FAE6B976C9687
:105790003FAE6C97A5963FADA5972CAD332309F48A
:1057A00073C021963FAD219725964FAD2597299639
:1057B0005FAD2997612F78A9C1010F946C2F18163E
:1057C0000CF08AC08CA99DA9AEA9BFA9841995091E
:1057D000A609B709CB57DF4F88839983AA83BB8378
:1057E000C558D04088589341A109B109B7FD74C08C
:1057F000D501C40128AD39AD4AAD5BAD821B930B19
:10580000A40BB50BB595A7959795879507FF03C092
:105810008093C20607C0C158DF4FE881F981CF5796
:10582000D0408083CB57DF4F288139814A815B810B
:10583000C558D040AE962CAF3DAF4EAF5FAFAE97E0
:105840003CAD6D963FAF6D9721964FAD21976E960B
:105850004FAF6E9725965FAD25976F965FAF6F97A9
:1058600029968FAD2997A0968FAFA0972CA93DA917
:105870004EA95FA9AA962CAF3DAF4EAF5FAFAA97D6
:10588000A5961FAEA59728C021963FAD21972596D6
:105890004FAD259729965FAD2997612F78A9C10152
:1058A0000F94A82687FF18C08CA99DA9AEA9BFA9EF
:1058B000AA962CAD3DAD4EAD5FADAA97821B930B62
:1058C000A40BB50BAC01BD014858534161097109E6
:1058D00077FD02C00C94873720E030E040EA51E4C5
:1058E0006CAD21967FAD219725968FAD2597299692
:1058F0009FAD29970F94462D9B01AC01612F78A98C
:10590000C1010F946C2F18167CF4E1EFF6E084913E
:105910008F010F5F1F4F811103C00E94CF9033C7CB
:105920000E94AC44F801F3CF8CA99DA9AEA9BFA9F0
:10593000E7962CAD3DAD4EAD5FADE797821B930B67
:10594000A40BB50BB7FDAAC00E94BD8D8AE00E94D2
:10595000AC448CA99DA9AEA9BFA98053984FAF4F65
:10596000BF4FE7968CAF9DAFAEAFBFAFE797A696A0
:105970009FADA69791116DC0EB962CAD3DAD4EAD90
:105980005FADEB97612F78A9C1010F946C2F1816AA
:105990000CF045C020E030E040E850E4612F78A9E9
:1059A000C1010F94462DEB966CAF7DAF8EAF9FAFCC
:1059B000EB972CA93DA94EA95FA9E3968CAD9DADAF
:1059C000AEADBFADE397280F391F4A1F5B1FEF969F
:1059D0002CAF3DAF4EAF5FAFEF9720E030E040E03F
:1059E00051E46CAD21967FAD219725968FAD25971B
:1059F00029969FAD29970F94452D9B01AC0191E00D
:105A0000A6969FAFA697612F78A9C1010F946C2F1E
:105A100018160CF443C0A6961FAEA6973FC08CA9DB
:105A20009DA9AEA9BFA9EF962CAD3DAD4EAD5FAD22
:105A3000EF97821B930BA40BB50BB7FD2FC00F3F45
:105A400019F04DEB56E002C04FEC56E062EE76E006
:105A500022C020E030E040EA51E46CAD21967FADF9
:105A6000219725968FAD259729969FAD29970F945D
:105A7000452D9B01AC01612F78A9C1010F94A82687
:105A800087FF0CC00F3F19F046E856E002C049E915
:105A900056E06DEA76E0802F0F94AB168CA99DA995
:105AA000AEA9BFA9880F991FAA1FBB1FAA962CAD2C
:105AB0003DAD4EAD5FADAA97821B930BA40BB50B0A
:105AC00084199509A609B70981389F44A241B105F7
:105AD00068F0E8E6F6E084918F010F5F1F4F88239E
